{
    "_format": "hh-sol-artifact-1",
    "contractName": "NFTMarketplace",
    "sourceName": "contracts/NFTMarketplace.sol",
    "abi": [
        {
            "inputs": [],
            "stateMutability": "nonpayable",
            "type": "constructor"
        },
        {
            "anonymous": false,
            "inputs": [
                {
                    "indexed": true,
                    "internalType": "address",
                    "name": "owner",
                    "type": "address"
                },
                {
                    "indexed": true,
                    "internalType": "address",
                    "name": "approved",
                    "type": "address"
                },
                {
                    "indexed": true,
                    "internalType": "uint256",
                    "name": "tokenId",
                    "type": "uint256"
                }
            ],
            "name": "Approval",
            "type": "event"
        },
        {
            "anonymous": false,
            "inputs": [
                {
                    "indexed": true,
                    "internalType": "address",
                    "name": "owner",
                    "type": "address"
                },
                {
                    "indexed": true,
                    "internalType": "address",
                    "name": "operator",
                    "type": "address"
                },
                {
                    "indexed": false,
                    "internalType": "bool",
                    "name": "approved",
                    "type": "bool"
                }
            ],
            "name": "ApprovalForAll",
            "type": "event"
        },
        {
            "anonymous": false,
            "inputs": [
                {
                    "indexed": true,
                    "internalType": "address",
                    "name": "from",
                    "type": "address"
                },
                {
                    "indexed": true,
                    "internalType": "address",
                    "name": "to",
                    "type": "address"
                },
                {
                    "indexed": true,
                    "internalType": "uint256",
                    "name": "tokenId",
                    "type": "uint256"
                }
            ],
            "name": "Transfer",
            "type": "event"
        },
        {
            "inputs": [
                {
                    "internalType": "address",
                    "name": "to",
                    "type": "address"
                },
                {
                    "internalType": "uint256",
                    "name": "tokenId",
                    "type": "uint256"
                }
            ],
            "name": "approve",
            "outputs": [],
            "stateMutability": "nonpayable",
            "type": "function"
        },
        {
            "inputs": [
                {
                    "internalType": "address",
                    "name": "owner",
                    "type": "address"
                }
            ],
            "name": "balanceOf",
            "outputs": [
                {
                    "internalType": "uint256",
                    "name": "",
                    "type": "uint256"
                }
            ],
            "stateMutability": "view",
            "type": "function"
        },
        {
            "inputs": [
                {
                    "internalType": "string",
                    "name": "tokenURI",
                    "type": "string"
                },
                {
                    "internalType": "uint256",
                    "name": "nftPrice",
                    "type": "uint256"
                }
            ],
            "name": "createNFT",
            "outputs": [
                {
                    "internalType": "uint256",
                    "name": "",
                    "type": "uint256"
                }
            ],
            "stateMutability": "payable",
            "type": "function"
        },
        {
            "inputs": [
                {
                    "internalType": "uint256",
                    "name": "tokenId",
                    "type": "uint256"
                }
            ],
            "name": "executeSale",
            "outputs": [],
            "stateMutability": "payable",
            "type": "function"
        },
        {
            "inputs": [],
            "name": "getAllNFTs",
            "outputs": [
                {
                    "components": [
                        {
                            "internalType": "uint256",
                            "name": "tokenID",
                            "type": "uint256"
                        },
                        {
                            "internalType": "address payable",
                            "name": "owner",
                            "type": "address"
                        },
                        {
                            "internalType": "address payable",
                            "name": "seller",
                            "type": "address"
                        },
                        {
                            "internalType": "uint256",
                            "name": "price",
                            "type": "uint256"
                        },
                        {
                            "internalType": "bool",
                            "name": "isCurrentlyListed",
                            "type": "bool"
                        }
                    ],
                    "internalType": "struct NFTMarketplace.ListedToken[]",
                    "name": "",
                    "type": "tuple[]"
                }
            ],
            "stateMutability": "nonpayable",
            "type": "function"
        },
        {
            "inputs": [
                {
                    "internalType": "uint256",
                    "name": "tokenId",
                    "type": "uint256"
                }
            ],
            "name": "getApproved",
            "outputs": [
                {
                    "internalType": "address",
                    "name": "",
                    "type": "address"
                }
            ],
            "stateMutability": "view",
            "type": "function"
        },
        {
            "inputs": [],
            "name": "getCurrentTokenId",
            "outputs": [
                {
                    "internalType": "uint256",
                    "name": "",
                    "type": "uint256"
                }
            ],
            "stateMutability": "view",
            "type": "function"
        },
        {
            "inputs": [],
            "name": "getLatestTokenById",
            "outputs": [
                {
                    "components": [
                        {
                            "internalType": "uint256",
                            "name": "tokenID",
                            "type": "uint256"
                        },
                        {
                            "internalType": "address payable",
                            "name": "owner",
                            "type": "address"
                        },
                        {
                            "internalType": "address payable",
                            "name": "seller",
                            "type": "address"
                        },
                        {
                            "internalType": "uint256",
                            "name": "price",
                            "type": "uint256"
                        },
                        {
                            "internalType": "bool",
                            "name": "isCurrentlyListed",
                            "type": "bool"
                        }
                    ],
                    "internalType": "struct NFTMarketplace.ListedToken",
                    "name": "",
                    "type": "tuple"
                }
            ],
            "stateMutability": "view",
            "type": "function"
        },
        {
            "inputs": [],
            "name": "getListingPrice",
            "outputs": [
                {
                    "internalType": "uint256",
                    "name": "",
                    "type": "uint256"
                }
            ],
            "stateMutability": "view",
            "type": "function"
        },
        {
            "inputs": [],
            "name": "getNFTByUser",
            "outputs": [
                {
                    "components": [
                        {
                            "internalType": "uint256",
                            "name": "tokenID",
                            "type": "uint256"
                        },
                        {
                            "internalType": "address payable",
                            "name": "owner",
                            "type": "address"
                        },
                        {
                            "internalType": "address payable",
                            "name": "seller",
                            "type": "address"
                        },
                        {
                            "internalType": "uint256",
                            "name": "price",
                            "type": "uint256"
                        },
                        {
                            "internalType": "bool",
                            "name": "isCurrentlyListed",
                            "type": "bool"
                        }
                    ],
                    "internalType": "struct NFTMarketplace.ListedToken[]",
                    "name": "",
                    "type": "tuple[]"
                }
            ],
            "stateMutability": "view",
            "type": "function"
        },
        {
            "inputs": [
                {
                    "internalType": "uint256",
                    "name": "tokenId",
                    "type": "uint256"
                }
            ],
            "name": "getTokenById",
            "outputs": [
                {
                    "components": [
                        {
                            "internalType": "uint256",
                            "name": "tokenID",
                            "type": "uint256"
                        },
                        {
                            "internalType": "address payable",
                            "name": "owner",
                            "type": "address"
                        },
                        {
                            "internalType": "address payable",
                            "name": "seller",
                            "type": "address"
                        },
                        {
                            "internalType": "uint256",
                            "name": "price",
                            "type": "uint256"
                        },
                        {
                            "internalType": "bool",
                            "name": "isCurrentlyListed",
                            "type": "bool"
                        }
                    ],
                    "internalType": "struct NFTMarketplace.ListedToken",
                    "name": "",
                    "type": "tuple"
                }
            ],
            "stateMutability": "view",
            "type": "function"
        },
        {
            "inputs": [
                {
                    "internalType": "address",
                    "name": "owner",
                    "type": "address"
                },
                {
                    "internalType": "address",
                    "name": "operator",
                    "type": "address"
                }
            ],
            "name": "isApprovedForAll",
            "outputs": [
                {
                    "internalType": "bool",
                    "name": "",
                    "type": "bool"
                }
            ],
            "stateMutability": "view",
            "type": "function"
        },
        {
            "inputs": [],
            "name": "name",
            "outputs": [
                {
                    "internalType": "string",
                    "name": "",
                    "type": "string"
                }
            ],
            "stateMutability": "view",
            "type": "function"
        },
        {
            "inputs": [
                {
                    "internalType": "uint256",
                    "name": "tokenId",
                    "type": "uint256"
                }
            ],
            "name": "ownerOf",
            "outputs": [
                {
                    "internalType": "address",
                    "name": "",
                    "type": "address"
                }
            ],
            "stateMutability": "view",
            "type": "function"
        },
        {
            "inputs": [
                {
                    "internalType": "address",
                    "name": "from",
                    "type": "address"
                },
                {
                    "internalType": "address",
                    "name": "to",
                    "type": "address"
                },
                {
                    "internalType": "uint256",
                    "name": "tokenId",
                    "type": "uint256"
                }
            ],
            "name": "safeTransferFrom",
            "outputs": [],
            "stateMutability": "nonpayable",
            "type": "function"
        },
        {
            "inputs": [
                {
                    "internalType": "address",
                    "name": "from",
                    "type": "address"
                },
                {
                    "internalType": "address",
                    "name": "to",
                    "type": "address"
                },
                {
                    "internalType": "uint256",
                    "name": "tokenId",
                    "type": "uint256"
                },
                {
                    "internalType": "bytes",
                    "name": "data",
                    "type": "bytes"
                }
            ],
            "name": "safeTransferFrom",
            "outputs": [],
            "stateMutability": "nonpayable",
            "type": "function"
        },
        {
            "inputs": [
                {
                    "internalType": "address",
                    "name": "operator",
                    "type": "address"
                },
                {
                    "internalType": "bool",
                    "name": "approved",
                    "type": "bool"
                }
            ],
            "name": "setApprovalForAll",
            "outputs": [],
            "stateMutability": "nonpayable",
            "type": "function"
        },
        {
            "inputs": [
                {
                    "internalType": "bytes4",
                    "name": "interfaceId",
                    "type": "bytes4"
                }
            ],
            "name": "supportsInterface",
            "outputs": [
                {
                    "internalType": "bool",
                    "name": "",
                    "type": "bool"
                }
            ],
            "stateMutability": "view",
            "type": "function"
        },
        {
            "inputs": [],
            "name": "symbol",
            "outputs": [
                {
                    "internalType": "string",
                    "name": "",
                    "type": "string"
                }
            ],
            "stateMutability": "view",
            "type": "function"
        },
        {
            "inputs": [
                {
                    "internalType": "uint256",
                    "name": "tokenId",
                    "type": "uint256"
                }
            ],
            "name": "tokenURI",
            "outputs": [
                {
                    "internalType": "string",
                    "name": "",
                    "type": "string"
                }
            ],
            "stateMutability": "view",
            "type": "function"
        },
        {
            "inputs": [
                {
                    "internalType": "address",
                    "name": "from",
                    "type": "address"
                },
                {
                    "internalType": "address",
                    "name": "to",
                    "type": "address"
                },
                {
                    "internalType": "uint256",
                    "name": "tokenId",
                    "type": "uint256"
                }
            ],
            "name": "transferFrom",
            "outputs": [],
            "stateMutability": "nonpayable",
            "type": "function"
        },
        {
            "inputs": [
                {
                    "internalType": "uint256",
                    "name": "_listingPrice",
                    "type": "uint256"
                }
            ],
            "name": "updateListingPrice",
            "outputs": [],
            "stateMutability": "payable",
            "type": "function"
        }
    ],
    "bytecode": "0x608060405266038d7ea4c680006008553480156200001c57600080fd5b506040518060400160405280600e81526020017f4e46544d61726b6574706c6163650000000000000000000000000000000000008152506040518060400160405280600781526020017f4e46544d524b54000000000000000000000000000000000000000000000000008152508160009080519060200190620000a192919062000104565b508060019080519060200190620000ba92919062000104565b50505033600760006101000a81548173ffffffffffffffffffffffffffffffffffffffff021916908373ffffffffffffffffffffffffffffffffffffffff16021790555062000219565b8280546200011290620001b4565b90600052602060002090601f01602090048101928262000136576000855562000182565b82601f106200015157805160ff191683800117855562000182565b8280016001018555821562000182579182015b828111156200018157825182559160200191906001019062000164565b5b50905062000191919062000195565b5090565b5b80821115620001b057600081600090555060010162000196565b5090565b60006002820490506001821680620001cd57607f821691505b60208210811415620001e457620001e3620001ea565b5b50919050565b7f4e487b7100000000000000000000000000000000000000000000000000000000600052602260045260246000fd5b613f8b80620002296000396000f3fe6080604052600436106101355760003560e01c80637bdc60d9116100ab578063ae677aa31161006f578063ae677aa314610432578063b88d4fde1461044e578063c87b56dd14610477578063e0391b09146104b4578063e985e9c5146104df578063fea4208a1461051c57610135565b80637bdc60d91461035a5780639462975f1461039757806395d89b41146103c25780639b1225c4146103ed578063a22cb4651461040957610135565b806323b872dd116100fd57806323b872dd14610233578063268291551461025c57806342842e0e1461028c57806356189236146102b55780636352211e146102e057806370a082311461031d57610135565b806301ffc9a71461013a57806306fdde0314610177578063081812fc146101a2578063095ea7b3146101df57806312e8558514610208575b600080fd5b34801561014657600080fd5b50610161600480360381019061015c9190612d82565b610547565b60405161016e91906133ef565b60405180910390f35b34801561018357600080fd5b5061018c610629565b604051610199919061340a565b60405180910390f35b3480156101ae57600080fd5b506101c960048036038101906101c49190612e28565b6106bb565b6040516101d69190613366565b60405180910390f35b3480156101eb57600080fd5b5061020660048036038101906102019190612d46565b610701565b005b34801561021457600080fd5b5061021d610819565b60405161022a9190613687565b60405180910390f35b34801561023f57600080fd5b5061025a60048036038101906102559190612c40565b610823565b005b61027660048036038101906102719190612dd4565b610883565b6040516102839190613687565b60405180910390f35b34801561029857600080fd5b506102b360048036038101906102ae9190612c40565b61094a565b005b3480156102c157600080fd5b506102ca61096a565b6040516102d79190613687565b60405180910390f35b3480156102ec57600080fd5b5061030760048036038101906103029190612e28565b61097b565b6040516103149190613366565b60405180910390f35b34801561032957600080fd5b50610344600480360381019061033f9190612bdb565b610a02565b6040516103519190613687565b60405180910390f35b34801561036657600080fd5b50610381600480360381019061037c9190612e28565b610aba565b60405161038e919061366c565b60405180910390f35b3480156103a357600080fd5b506103ac610bc2565b6040516103b991906133cd565b60405180910390f35b3480156103ce57600080fd5b506103d7610e2c565b6040516103e4919061340a565b60405180910390f35b61040760048036038101906104029190612e28565b610ebe565b005b34801561041557600080fd5b50610430600480360381019061042b9190612d0a565b611165565b005b61044c60048036038101906104479190612e28565b61117b565b005b34801561045a57600080fd5b5061047560048036038101906104709190612c8f565b611215565b005b34801561048357600080fd5b5061049e60048036038101906104999190612e28565b611277565b6040516104ab919061340a565b60405180910390f35b3480156104c057600080fd5b506104c961138a565b6040516104d691906133cd565b60405180910390f35b3480156104eb57600080fd5b5061050660048036038101906105019190612c04565b611581565b60405161051391906133ef565b60405180910390f35b34801561052857600080fd5b50610531611615565b60405161053e919061366c565b60405180910390f35b60007f80ac58cd000000000000000000000000000000000000000000000000000000007bffffffffffffffffffffffffffffffffffffffffffffffffffffffff1916827bffffffffffffffffffffffffffffffffffffffffffffffffffffffff1916148061061257507f5b5e139f000000000000000000000000000000000000000000000000000000007bffffffffffffffffffffffffffffffffffffffffffffffffffffffff1916827bffffffffffffffffffffffffffffffffffffffffffffffffffffffff1916145b8061062257506106218261172a565b5b9050919050565b60606000805461063890613902565b80601f016020809104026020016040519081016040528092919081815260200182805461066490613902565b80156106b15780601f10610686576101008083540402835291602001916106b1565b820191906000526020600020905b81548152906001019060200180831161069457829003601f168201915b5050505050905090565b60006106c682611794565b6004600083815260200190815260200160002060009054906101000a900473ffffffffffffffffffffffffffffffffffffffff169050919050565b600061070c8261097b565b90508073ffffffffffffffffffffffffffffffffffffffff168373ffffffffffffffffffffffffffffffffffffffff16141561077d576040517f08c379a0000000000000000000000000000000000000000000000000000000008152600401610774906135ec565b60405180910390fd5b8073ffffffffffffffffffffffffffffffffffffffff1661079c6117df565b73ffffffffffffffffffffffffffffffffffffffff1614806107cb57506107ca816107c56117df565b611581565b5b61080a576040517f08c379a00000000000000000000000000000000000000000000000000000000081526004016108019061362c565b60405180910390fd5b61081483836117e7565b505050565b6000600854905090565b61083461082e6117df565b826118a0565b610873576040517f08c379a000000000000000000000000000000000000000000000000000000000815260040161086a9061344c565b60405180910390fd5b61087e838383611935565b505050565b600060085434146108c9576040517f08c379a00000000000000000000000000000000000000000000000000000000081526004016108c09061352c565b60405180910390fd5b6000821161090c576040517f08c379a00000000000000000000000000000000000000000000000000000000081526004016109039061360c565b60405180910390fd5b610916600a611c2f565b600061092061096a565b905061092c3382611c45565b6109368185611c63565b6109408184611cd7565b8091505092915050565b61096583838360405180602001604052806000815250611215565b505050565b6000610976600a611e14565b905090565b60008061098783611e22565b9050600073ffffffffffffffffffffffffffffffffffffffff168173ffffffffffffffffffffffffffffffffffffffff1614156109f9576040517f08c379a00000000000000000000000000000000000000000000000000000000081526004016109f0906135cc565b60405180910390fd5b80915050919050565b60008073ffffffffffffffffffffffffffffffffffffffff168273ffffffffffffffffffffffffffffffffffffffff161415610a73576040517f08c379a0000000000000000000000000000000000000000000000000000000008152600401610a6a9061354c565b60405180910390fd5b600360008373ffffffffffffffffffffffffffffffffffffffff1673ffffffffffffffffffffffffffffffffffffffff168152602001908152602001600020549050919050565b610ac26129a2565b600960008381526020019081526020016000206040518060a0016040529081600082015481526020016001820160009054906101000a900473ffffffffffffffffffffffffffffffffffffffff1673ffffffffffffffffffffffffffffffffffffffff1673ffffffffffffffffffffffffffffffffffffffff1681526020016002820160009054906101000a900473ffffffffffffffffffffffffffffffffffffffff1673ffffffffffffffffffffffffffffffffffffffff1673ffffffffffffffffffffffffffffffffffffffff168152602001600382015481526020016004820160009054906101000a900460ff1615151515815250509050919050565b60606000610bd0600a611e14565b905060008167ffffffffffffffff811115610c14577f4e487b7100000000000000000000000000000000000000000000000000000000600052604160045260246000fd5b604051908082528060200260200182016040528015610c4d57816020015b610c3a6129a2565b815260200190600190039081610c325790505b50905060005b828111610e23576000600960008381526020019081526020016000206040518060a0016040529081600082015481526020016001820160009054906101000a900473ffffffffffffffffffffffffffffffffffffffff1673ffffffffffffffffffffffffffffffffffffffff1673ffffffffffffffffffffffffffffffffffffffff1681526020016002820160009054906101000a900473ffffffffffffffffffffffffffffffffffffffff1673ffffffffffffffffffffffffffffffffffffffff1673ffffffffffffffffffffffffffffffffffffffff168152602001600382015481526020016004820160009054906101000a900460ff16151515158152505090503373ffffffffffffffffffffffffffffffffffffffff16816040015173ffffffffffffffffffffffffffffffffffffffff161480610dc457503373ffffffffffffffffffffffffffffffffffffffff16816020015173ffffffffffffffffffffffffffffffffffffffff16145b15610e0f5780838381518110610e03577f4e487b7100000000000000000000000000000000000000000000000000000000600052603260045260246000fd5b60200260200101819052505b508080610e1b90613965565b915050610c53565b50809250505090565b606060018054610e3b90613902565b80601f0160208091040260200160405190810160405280929190818152602001828054610e6790613902565b8015610eb45780601f10610e8957610100808354040283529160200191610eb4565b820191906000526020600020905b815481529060010190602001808311610e9757829003601f168201915b5050505050905090565b600060096000838152602001908152602001600020600301549050348114610f1b576040517f08c379a0000000000000000000000000000000000000000000000000000000008152600401610f12906135ac565b60405180910390fd5b60006009600084815260200190815260200160002060020160009054906101000a900473ffffffffffffffffffffffffffffffffffffffff16905060006009600085815260200190815260200160002060010160009054906101000a900473ffffffffffffffffffffffffffffffffffffffff169050336009600086815260200190815260200160002060020160006101000a81548173ffffffffffffffffffffffffffffffffffffffff021916908373ffffffffffffffffffffffffffffffffffffffff160217905550610ff0600b611c2f565b610ffb303386611935565b6110053085610701565b60008173ffffffffffffffffffffffffffffffffffffffff163460405161102b90613351565b60006040518083038185875af1925050503d8060008114611068576040519150601f19603f3d011682016040523d82523d6000602084013e61106d565b606091505b50509050806110b1576040517f08c379a00000000000000000000000000000000000000000000000000000000081526004016110a89061364c565b60405180910390fd5b60008373ffffffffffffffffffffffffffffffffffffffff16346040516110d790613351565b60006040518083038185875af1925050503d8060008114611114576040519150601f19603f3d011682016040523d82523d6000602084013e611119565b606091505b505090508061115d576040517f08c379a00000000000000000000000000000000000000000000000000000000081526004016111549061342c565b60405180910390fd5b505050505050565b6111776111706117df565b8383611e5f565b5050565b3373ffffffffffffffffffffffffffffffffffffffff16600760009054906101000a900473ffffffffffffffffffffffffffffffffffffffff1673ffffffffffffffffffffffffffffffffffffffff161461120b576040517f08c379a00000000000000000000000000000000000000000000000000000000081526004016112029061346c565b60405180910390fd5b8060088190555050565b6112266112206117df565b836118a0565b611265576040517f08c379a000000000000000000000000000000000000000000000000000000000815260040161125c9061344c565b60405180910390fd5b61127184848484611fcc565b50505050565b606061128282611794565b60006006600084815260200190815260200160002080546112a290613902565b80601f01602080910402602001604051908101604052809291908181526020018280546112ce90613902565b801561131b5780601f106112f05761010080835404028352916020019161131b565b820191906000526020600020905b8154815290600101906020018083116112fe57829003601f168201915b50505050509050600061132c612028565b9050600081511415611342578192505050611385565b60008251111561137757808260405160200161135f92919061332d565b60405160208183030381529060405292505050611385565b6113808461203f565b925050505b919050565b60606000611398600a611e14565b905060008167ffffffffffffffff8111156113dc577f4e487b7100000000000000000000000000000000000000000000000000000000600052604160045260246000fd5b60405190808252806020026020018201604052801561141557816020015b6114026129a2565b8152602001906001900390816113fa5790505b50905060005b828111611578576000600960008381526020019081526020016000206040518060a0016040529081600082015481526020016001820160009054906101000a900473ffffffffffffffffffffffffffffffffffffffff1673ffffffffffffffffffffffffffffffffffffffff1673ffffffffffffffffffffffffffffffffffffffff1681526020016002820160009054906101000a900473ffffffffffffffffffffffffffffffffffffffff1673ffffffffffffffffffffffffffffffffffffffff1673ffffffffffffffffffffffffffffffffffffffff168152602001600382015481526020016004820160009054906101000a900460ff161515151581525050905080838381518110611559577f4e487b7100000000000000000000000000000000000000000000000000000000600052603260045260246000fd5b602002602001018190525050808061157090613965565b91505061141b565b50809250505090565b6000600560008473ffffffffffffffffffffffffffffffffffffffff1673ffffffffffffffffffffffffffffffffffffffff16815260200190815260200160002060008373ffffffffffffffffffffffffffffffffffffffff1673ffffffffffffffffffffffffffffffffffffffff16815260200190815260200160002060009054906101000a900460ff16905092915050565b61161d6129a2565b6000611629600a611e14565b9050600960008281526020019081526020016000206040518060a0016040529081600082015481526020016001820160009054906101000a900473ffffffffffffffffffffffffffffffffffffffff1673ffffffffffffffffffffffffffffffffffffffff1673ffffffffffffffffffffffffffffffffffffffff1681526020016002820160009054906101000a900473ffffffffffffffffffffffffffffffffffffffff1673ffffffffffffffffffffffffffffffffffffffff1673ffffffffffffffffffffffffffffffffffffffff168152602001600382015481526020016004820160009054906101000a900460ff16151515158152505091505090565b60007f01ffc9a7000000000000000000000000000000000000000000000000000000007bffffffffffffffffffffffffffffffffffffffffffffffffffffffff1916827bffffffffffffffffffffffffffffffffffffffffffffffffffffffff1916149050919050565b61179d816120a7565b6117dc576040517f08c379a00000000000000000000000000000000000000000000000000000000081526004016117d3906135cc565b60405180910390fd5b50565b600033905090565b816004600083815260200190815260200160002060006101000a81548173ffffffffffffffffffffffffffffffffffffffff021916908373ffffffffffffffffffffffffffffffffffffffff160217905550808273ffffffffffffffffffffffffffffffffffffffff1661185a8361097b565b73ffffffffffffffffffffffffffffffffffffffff167f8c5be1e5ebec7d5bd14f71427d1e84f3dd0314c0f7b2291e5b200ac8c7c3b92560405160405180910390a45050565b6000806118ac8361097b565b90508073ffffffffffffffffffffffffffffffffffffffff168473ffffffffffffffffffffffffffffffffffffffff1614806118ee57506118ed8185611581565b5b8061192c57508373ffffffffffffffffffffffffffffffffffffffff16611914846106bb565b73ffffffffffffffffffffffffffffffffffffffff16145b91505092915050565b8273ffffffffffffffffffffffffffffffffffffffff166119558261097b565b73ffffffffffffffffffffffffffffffffffffffff16146119ab576040517f08c379a00000000000000000000000000000000000000000000000000000000081526004016119a2906134ac565b60405180910390fd5b600073ffffffffffffffffffffffffffffffffffffffff168273ffffffffffffffffffffffffffffffffffffffff161415611a1b576040517f08c379a0000000000000000000000000000000000000000000000000000000008152600401611a12906134ec565b60405180910390fd5b611a2883838360016120e8565b8273ffffffffffffffffffffffffffffffffffffffff16611a488261097b565b73ffffffffffffffffffffffffffffffffffffffff1614611a9e576040517f08c379a0000000000000000000000000000000000000000000000000000000008152600401611a95906134ac565b60405180910390fd5b6004600082815260200190815260200160002060006101000a81549073ffffffffffffffffffffffffffffffffffffffff02191690556001600360008573ffffffffffffffffffffffffffffffffffffffff1673ffffffffffffffffffffffffffffffffffffffff168152602001908152602001600020600082825403925050819055506001600360008473ffffffffffffffffffffffffffffffffffffffff1673ffffffffffffffffffffffffffffffffffffffff16815260200190815260200160002060008282540192505081905550816002600083815260200190815260200160002060006101000a81548173ffffffffffffffffffffffffffffffffffffffff021916908373ffffffffffffffffffffffffffffffffffffffff160217905550808273ffffffffffffffffffffffffffffffffffffffff168473ffffffffffffffffffffffffffffffffffffffff167fddf252ad1be2c89b69c2b068fc378daa952ba7f163c4a11628f55a4df523b3ef60405160405180910390a4611c2a838383600161220e565b505050565b6001816000016000828254019250508190555050565b611c5f828260405180602001604052806000815250612214565b5050565b611c6c826120a7565b611cab576040517f08c379a0000000000000000000000000000000000000000000000000000000008152600401611ca29061356c565b60405180910390fd5b80600660008481526020019081526020016000209080519060200190611cd29291906129ff565b505050565b6040518060a001604052808381526020013073ffffffffffffffffffffffffffffffffffffffff1681526020013373ffffffffffffffffffffffffffffffffffffffff16815260200182815260200160011515815250600960008481526020019081526020016000206000820151816000015560208201518160010160006101000a81548173ffffffffffffffffffffffffffffffffffffffff021916908373ffffffffffffffffffffffffffffffffffffffff16021790555060408201518160020160006101000a81548173ffffffffffffffffffffffffffffffffffffffff021916908373ffffffffffffffffffffffffffffffffffffffff1602179055506060820151816003015560808201518160040160006101000a81548160ff021916908315150217905550905050611e10333084611935565b5050565b600081600001549050919050565b60006002600083815260200190815260200160002060009054906101000a900473ffffffffffffffffffffffffffffffffffffffff169050919050565b8173ffffffffffffffffffffffffffffffffffffffff168373ffffffffffffffffffffffffffffffffffffffff161415611ece576040517f08c379a0000000000000000000000000000000000000000000000000000000008152600401611ec59061350c565b60405180910390fd5b80600560008573ffffffffffffffffffffffffffffffffffffffff1673ffffffffffffffffffffffffffffffffffffffff16815260200190815260200160002060008473ffffffffffffffffffffffffffffffffffffffff1673ffffffffffffffffffffffffffffffffffffffff16815260200190815260200160002060006101000a81548160ff0219169083151502179055508173ffffffffffffffffffffffffffffffffffffffff168373ffffffffffffffffffffffffffffffffffffffff167f17307eab39ab6107e8899845ad3d59bd9653f200f220920489ca2b5937696c3183604051611fbf91906133ef565b60405180910390a3505050565b611fd7848484611935565b611fe38484848461226f565b612022576040517f08c379a00000000000000000000000000000000000000000000000000000000081526004016120199061348c565b60405180910390fd5b50505050565b606060405180602001604052806000815250905090565b606061204a82611794565b6000612054612028565b90506000815111612074576040518060200160405280600081525061209f565b8061207e84612406565b60405160200161208f92919061332d565b6040516020818303038152906040525b915050919050565b60008073ffffffffffffffffffffffffffffffffffffffff166120c983611e22565b73ffffffffffffffffffffffffffffffffffffffff1614159050919050565b600181111561220857600073ffffffffffffffffffffffffffffffffffffffff168473ffffffffffffffffffffffffffffffffffffffff161461217c5780600360008673ffffffffffffffffffffffffffffffffffffffff1673ffffffffffffffffffffffffffffffffffffffff16815260200190815260200160002060008282546121749190613806565b925050819055505b600073ffffffffffffffffffffffffffffffffffffffff168373ffffffffffffffffffffffffffffffffffffffff16146122075780600360008573ffffffffffffffffffffffffffffffffffffffff1673ffffffffffffffffffffffffffffffffffffffff16815260200190815260200160002060008282546121ff91906137b0565b925050819055505b5b50505050565b50505050565b61221e838361252a565b61222b600084848461226f565b61226a576040517f08c379a00000000000000000000000000000000000000000000000000000000081526004016122619061348c565b60405180910390fd5b505050565b60006122908473ffffffffffffffffffffffffffffffffffffffff16612748565b156123f9578373ffffffffffffffffffffffffffffffffffffffff1663150b7a026122b96117df565b8786866040518563ffffffff1660e01b81526004016122db9493929190613381565b602060405180830381600087803b1580156122f557600080fd5b505af192505050801561232657506040513d601f19601f820116820180604052508101906123239190612dab565b60015b6123a9573d8060008114612356576040519150601f19603f3d011682016040523d82523d6000602084013e61235b565b606091505b506000815114156123a1576040517f08c379a00000000000000000000000000000000000000000000000000000000081526004016123989061348c565b60405180910390fd5b805181602001fd5b63150b7a0260e01b7bffffffffffffffffffffffffffffffffffffffffffffffffffffffff1916817bffffffffffffffffffffffffffffffffffffffffffffffffffffffff1916149150506123fe565b600190505b949350505050565b6060600060016124158461276b565b01905060008167ffffffffffffffff81111561245a577f4e487b7100000000000000000000000000000000000000000000000000000000600052604160045260246000fd5b6040519080825280601f01601f19166020018201604052801561248c5781602001600182028036833780820191505090505b509050600082602001820190505b60011561251f578080600190039150507f3031323334353637383961626364656600000000000000000000000000000000600a86061a8153600a8581612509577f4e487b7100000000000000000000000000000000000000000000000000000000600052601260045260246000fd5b049450600085141561251a5761251f565b61249a565b819350505050919050565b600073ffffffffffffffffffffffffffffffffffffffff168273ffffffffffffffffffffffffffffffffffffffff16141561259a576040517f08c379a00000000000000000000000000000000000000000000000000000000081526004016125919061358c565b60405180910390fd5b6125a3816120a7565b156125e3576040517f08c379a00000000000000000000000000000000000000000000000000000000081526004016125da906134cc565b60405180910390fd5b6125f16000838360016120e8565b6125fa816120a7565b1561263a576040517f08c379a0000000000000000000000000000000000000000000000000000000008152600401612631906134cc565b60405180910390fd5b6001600360008473ffffffffffffffffffffffffffffffffffffffff1673ffffffffffffffffffffffffffffffffffffffff16815260200190815260200160002060008282540192505081905550816002600083815260200190815260200160002060006101000a81548173ffffffffffffffffffffffffffffffffffffffff021916908373ffffffffffffffffffffffffffffffffffffffff160217905550808273ffffffffffffffffffffffffffffffffffffffff16600073ffffffffffffffffffffffffffffffffffffffff167fddf252ad1be2c89b69c2b068fc378daa952ba7f163c4a11628f55a4df523b3ef60405160405180910390a461274460008383600161220e565b5050565b6000808273ffffffffffffffffffffffffffffffffffffffff163b119050919050565b600080600090507a184f03e93ff9f4daa797ed6e38ed64bf6a1f01000000000000000083106127ef577a184f03e93ff9f4daa797ed6e38ed64bf6a1f01000000000000000083816127e5577f4e487b7100000000000000000000000000000000000000000000000000000000600052601260045260246000fd5b0492506040810190505b6d04ee2d6d415b85acef81000000008310612852576d04ee2d6d415b85acef81000000008381612848577f4e487b7100000000000000000000000000000000000000000000000000000000600052601260045260246000fd5b0492506020810190505b662386f26fc1000083106128a757662386f26fc10000838161289d577f4e487b7100000000000000000000000000000000000000000000000000000000600052601260045260246000fd5b0492506010810190505b6305f5e10083106128f6576305f5e10083816128ec577f4e487b7100000000000000000000000000000000000000000000000000000000600052601260045260246000fd5b0492506008810190505b6127108310612941576127108381612937577f4e487b7100000000000000000000000000000000000000000000000000000000600052601260045260246000fd5b0492506004810190505b6064831061298a5760648381612980577f4e487b7100000000000000000000000000000000000000000000000000000000600052601260045260246000fd5b0492506002810190505b600a8310612999576001810190505b80915050919050565b6040518060a0016040528060008152602001600073ffffffffffffffffffffffffffffffffffffffff168152602001600073ffffffffffffffffffffffffffffffffffffffff168152602001600081526020016000151581525090565b828054612a0b90613902565b90600052602060002090601f016020900481019282612a2d5760008555612a74565b82601f10612a4657805160ff1916838001178555612a74565b82800160010185558215612a74579182015b82811115612a73578251825591602001919060010190612a58565b5b509050612a819190612a85565b5090565b5b80821115612a9e576000816000905550600101612a86565b5090565b6000612ab5612ab0846136c7565b6136a2565b905082815260208101848484011115612acd57600080fd5b612ad88482856138c0565b509392505050565b6000612af3612aee846136f8565b6136a2565b905082815260208101848484011115612b0b57600080fd5b612b168482856138c0565b509392505050565b600081359050612b2d81613ef9565b92915050565b600081359050612b4281613f10565b92915050565b600081359050612b5781613f27565b92915050565b600081519050612b6c81613f27565b92915050565b600082601f830112612b8357600080fd5b8135612b93848260208601612aa2565b91505092915050565b600082601f830112612bad57600080fd5b8135612bbd848260208601612ae0565b91505092915050565b600081359050612bd581613f3e565b92915050565b600060208284031215612bed57600080fd5b6000612bfb84828501612b1e565b91505092915050565b60008060408385031215612c1757600080fd5b6000612c2585828601612b1e565b9250506020612c3685828601612b1e565b9150509250929050565b600080600060608486031215612c5557600080fd5b6000612c6386828701612b1e565b9350506020612c7486828701612b1e565b9250506040612c8586828701612bc6565b9150509250925092565b60008060008060808587031215612ca557600080fd5b6000612cb387828801612b1e565b9450506020612cc487828801612b1e565b9350506040612cd587828801612bc6565b925050606085013567ffffffffffffffff811115612cf257600080fd5b612cfe87828801612b72565b91505092959194509250565b60008060408385031215612d1d57600080fd5b6000612d2b85828601612b1e565b9250506020612d3c85828601612b33565b9150509250929050565b60008060408385031215612d5957600080fd5b6000612d6785828601612b1e565b9250506020612d7885828601612bc6565b9150509250929050565b600060208284031215612d9457600080fd5b6000612da284828501612b48565b91505092915050565b600060208284031215612dbd57600080fd5b6000612dcb84828501612b5d565b91505092915050565b60008060408385031215612de757600080fd5b600083013567ffffffffffffffff811115612e0157600080fd5b612e0d85828601612b9c565b9250506020612e1e85828601612bc6565b9150509250929050565b600060208284031215612e3a57600080fd5b6000612e4884828501612bc6565b91505092915050565b6000612e5d838361323f565b60a08301905092915050565b612e728161384c565b82525050565b612e818161383a565b82525050565b6000612e9282613739565b612e9c8185613767565b9350612ea783613729565b8060005b83811015612ed8578151612ebf8882612e51565b9750612eca8361375a565b925050600181019050612eab565b5085935050505092915050565b612eee8161385e565b82525050565b612efd8161385e565b82525050565b6000612f0e82613744565b612f188185613778565b9350612f288185602086016138cf565b612f3181613a3b565b840191505092915050565b6000612f478261374f565b612f518185613794565b9350612f618185602086016138cf565b612f6a81613a3b565b840191505092915050565b6000612f808261374f565b612f8a81856137a5565b9350612f9a8185602086016138cf565b80840191505092915050565b6000612fb3601e83613794565b9150612fbe82613a4c565b602082019050919050565b6000612fd6602d83613794565b9150612fe182613a75565b604082019050919050565b6000612ff9602a83613794565b915061300482613ac4565b604082019050919050565b600061301c603283613794565b915061302782613b13565b604082019050919050565b600061303f602583613794565b915061304a82613b62565b604082019050919050565b6000613062601c83613794565b915061306d82613bb1565b602082019050919050565b6000613085602483613794565b915061309082613bda565b604082019050919050565b60006130a8601983613794565b91506130b382613c29565b602082019050919050565b60006130cb602183613794565b91506130d682613c52565b604082019050919050565b60006130ee602983613794565b91506130f982613ca1565b604082019050919050565b6000613111602e83613794565b915061311c82613cf0565b604082019050919050565b6000613134602083613794565b915061313f82613d3f565b602082019050919050565b6000613157602583613794565b915061316282613d68565b604082019050919050565b600061317a601883613794565b915061318582613db7565b602082019050919050565b600061319d602183613794565b91506131a882613de0565b604082019050919050565b60006131c0600083613789565b91506131cb82613e2f565b600082019050919050565b60006131e3602283613794565b91506131ee82613e32565b604082019050919050565b6000613206603d83613794565b915061321182613e81565b604082019050919050565b6000613229601d83613794565b915061323482613ed0565b602082019050919050565b60a082016000820151613255600085018261330f565b5060208201516132686020850182612e69565b50604082015161327b6040850182612e69565b50606082015161328e606085018261330f565b5060808201516132a16080850182612ee5565b50505050565b60a0820160008201516132bd600085018261330f565b5060208201516132d06020850182612e69565b5060408201516132e36040850182612e69565b5060608201516132f6606085018261330f565b5060808201516133096080850182612ee5565b50505050565b613318816138b6565b82525050565b613327816138b6565b82525050565b60006133398285612f75565b91506133458284612f75565b91508190509392505050565b600061335c826131b3565b9150819050919050565b600060208201905061337b6000830184612e78565b92915050565b60006080820190506133966000830187612e78565b6133a36020830186612e78565b6133b0604083018561331e565b81810360608301526133c28184612f03565b905095945050505050565b600060208201905081810360008301526133e78184612e87565b905092915050565b60006020820190506134046000830184612ef4565b92915050565b600060208201905081810360008301526134248184612f3c565b905092915050565b6000602082019050818103600083015261344581612fa6565b9050919050565b6000602082019050818103600083015261346581612fc9565b9050919050565b6000602082019050818103600083015261348581612fec565b9050919050565b600060208201905081810360008301526134a58161300f565b9050919050565b600060208201905081810360008301526134c581613032565b9050919050565b600060208201905081810360008301526134e581613055565b9050919050565b6000602082019050818103600083015261350581613078565b9050919050565b600060208201905081810360008301526135258161309b565b9050919050565b60006020820190508181036000830152613545816130be565b9050919050565b60006020820190508181036000830152613565816130e1565b9050919050565b6000602082019050818103600083015261358581613104565b9050919050565b600060208201905081810360008301526135a581613127565b9050919050565b600060208201905081810360008301526135c58161314a565b9050919050565b600060208201905081810360008301526135e58161316d565b9050919050565b6000602082019050818103600083015261360581613190565b9050919050565b60006020820190508181036000830152613625816131d6565b9050919050565b60006020820190508181036000830152613645816131f9565b9050919050565b600060208201905081810360008301526136658161321c565b9050919050565b600060a08201905061368160008301846132a7565b92915050565b600060208201905061369c600083018461331e565b92915050565b60006136ac6136bd565b90506136b88282613934565b919050565b6000604051905090565b600067ffffffffffffffff8211156136e2576136e1613a0c565b5b6136eb82613a3b565b9050602081019050919050565b600067ffffffffffffffff82111561371357613712613a0c565b5b61371c82613a3b565b9050602081019050919050565b6000819050602082019050919050565b600081519050919050565b600081519050919050565b600081519050919050565b6000602082019050919050565b600082825260208201905092915050565b600082825260208201905092915050565b600081905092915050565b600082825260208201905092915050565b600081905092915050565b60006137bb826138b6565b91506137c6836138b6565b9250827fffffffffffffffffffffffffffffffffffffffffffffffffffffffffffffffff038211156137fb576137fa6139ae565b5b828201905092915050565b6000613811826138b6565b915061381c836138b6565b92508282101561382f5761382e6139ae565b5b828203905092915050565b600061384582613896565b9050919050565b600061385782613896565b9050919050565b60008115159050919050565b60007fffffffff0000000000000000000000000000000000000000000000000000000082169050919050565b600073ffffffffffffffffffffffffffffffffffffffff82169050919050565b6000819050919050565b82818337600083830152505050565b60005b838110156138ed5780820151818401526020810190506138d2565b838111156138fc576000848401525b50505050565b6000600282049050600182168061391a57607f821691505b6020821081141561392e5761392d6139dd565b5b50919050565b61393d82613a3b565b810181811067ffffffffffffffff8211171561395c5761395b613a0c565b5b80604052505050565b6000613970826138b6565b91507fffffffffffffffffffffffffffffffffffffffffffffffffffffffffffffffff8214156139a3576139a26139ae565b5b600182019050919050565b7f4e487b7100000000000000000000000000000000000000000000000000000000600052601160045260246000fd5b7f4e487b7100000000000000000000000000000000000000000000000000000000600052602260045260246000fd5b7f4e487b7100000000000000000000000000000000000000000000000000000000600052604160045260246000fd5b6000601f19601f8301169050919050565b7f53656e64696e6720457468657220546f2053656c6c6572204661696c65640000600082015250565b7f4552433732313a2063616c6c6572206973206e6f7420746f6b656e206f776e6560008201527f72206f7220617070726f76656400000000000000000000000000000000000000602082015250565b7f4c697374696e672050726963652043616e20426520557064617465642042792060008201527f4f776e6572204f6e6c7900000000000000000000000000000000000000000000602082015250565b7f4552433732313a207472616e7366657220746f206e6f6e20455243373231526560008201527f63656976657220696d706c656d656e7465720000000000000000000000000000602082015250565b7f4552433732313a207472616e736665722066726f6d20696e636f72726563742060008201527f6f776e6572000000000000000000000000000000000000000000000000000000602082015250565b7f4552433732313a20746f6b656e20616c7265616479206d696e74656400000000600082015250565b7f4552433732313a207472616e7366657220746f20746865207a65726f2061646460008201527f7265737300000000000000000000000000000000000000000000000000000000602082015250565b7f4552433732313a20617070726f766520746f2063616c6c657200000000000000600082015250565b7f4c697374696e6720507269636520466f72204e465420697320302e303120455460008201527f4800000000000000000000000000000000000000000000000000000000000000602082015250565b7f4552433732313a2061646472657373207a65726f206973206e6f74206120766160008201527f6c6964206f776e65720000000000000000000000000000000000000000000000602082015250565b7f45524337323155524953746f726167653a2055524920736574206f66206e6f6e60008201527f6578697374656e7420746f6b656e000000000000000000000000000000000000602082015250565b7f4552433732313a206d696e7420746f20746865207a65726f2061646472657373600082015250565b7f5072696365204e6565647320546f204d6174636820546865204c69737465642060008201527f5072696365000000000000000000000000000000000000000000000000000000602082015250565b7f4552433732313a20696e76616c696420746f6b656e2049440000000000000000600082015250565b7f4552433732313a20617070726f76616c20746f2063757272656e74206f776e6560008201527f7200000000000000000000000000000000000000000000000000000000000000602082015250565b50565b7f4e46542050726963652073686f756c642062652067726561746572207468616e60008201527f2030000000000000000000000000000000000000000000000000000000000000602082015250565b7f4552433732313a20617070726f76652063616c6c6572206973206e6f7420746f60008201527f6b656e206f776e6572206f7220617070726f76656420666f7220616c6c000000602082015250565b7f53656e64696e6720457468657220546f204f776e6572204661696c6564000000600082015250565b613f028161383a565b8114613f0d57600080fd5b50565b613f198161385e565b8114613f2457600080fd5b50565b613f308161386a565b8114613f3b57600080fd5b50565b613f47816138b6565b8114613f5257600080fd5b5056fea2646970667358221220a84586841d24fcaea6adb3eced5f9a5922a63b9047d39a1ee91d316501340ae264736f6c63430008030033",
    "linkReferences": {},
    "deployedLinkReferences": {}
}